:020000040800F2
:1000000000000220F5100108F90D0108FB0D0108A0
:10001000FD0D0108FF0D0108010E010800000000A0
:1000200000000000000000000000000031EF0008A8
:10003000030E01080000000081F10008E9F100084A
:100040004511010845110108451101084511010834
:10005000050E010845110108451101084511010867
:10006000451101080D0E0108170E01084511010880
:10007000210E0108310E0108451101084511010842
:1000800045110108451101084511010845110108F4
:10009000410E0108510E010845110108610E0108C9
:1000A00045110108451101084511010845110108D4
:1000B00045110108451101084511010845110108C4
:1000C000451101086D0E01087D0E01088D0E010815
:1000D0009D0E0108AD0E010845110108BD0E010875
:1000E0004511010845110108451101084511010894
:1000F00045110108CD0E010845110108E50E010862
:100100004511010845110108451101084511010873
:100110004511010845110108451101084511010863
:10012000F50E010845110108050F0108150F01081A
:100130004511010845110108451101084511010843
:10014000250F0108350F010845110108450F010869
:10015000550F0108650F0108750F0108850F01088B
:10016000950F0108A50F0108451101084511010867
:100170004511010845110108451101080000000062
:080180004511010845110108B9
:1001900010B5054C237833B9044B13B10448AFF3C1
:1001A00000800123237010BD5005002000000000D6
:1001B00058A9010808B5034B1BB103490348AFF325
:1001C000008008BD000000005405002058A9010867
:1001D00081F0004102E000BF83F0004330B54FEAF8
:1001E00041044FEA430594EA050F08BF90EA020F65
:1001F0001FBF54EA000C55EA020C7FEA645C7FEAF8
:10020000655C00F0E2804FEA5454D4EB5555B8BF1A
:100210006D420CDD2C4480EA020281EA030382EA8B
:10022000000083EA010180EA020281EA0303362D1D
:1002300088BF30BD11F0004F4FEA01314FF4801CF0
:100240004CEA113102D0404261EB410113F0004F02
:100250004FEA03334CEA133302D0524263EB4303B9
:1002600094EA050F00F0A780A4F10104D5F1200E57
:100270000DDB02FA0EFC22FA05F2801841F10001B2
:1002800003FA0EF2801843FA05F359410EE0A5F186
:1002900020050EF1200E012A03FA0EFC28BF4CF0B7
:1002A000020C43FA05F3C01851EBE37101F000456D
:1002B00007D54FF0000EDCF1000C7EEB00006EEB7A
:1002C0000101B1F5801F1BD3B1F5001F0CD3490804
:1002D0005FEA30004FEA3C0C04F101044FEA44525B
:1002E00012F5800F80F09A80BCF1004F08BF5FEAE2
:1002F000500C50F1000041EB045141EA050130BDC2
:100300005FEA4C0C404141EB0101013C28BFB1F5D3
:10031000801FE9D291F0000F04BF01460020B1FA1E
:1003200081F308BF2033A3F10B03B3F120020CDAF1
:100330000C3208DD02F1140CC2F10C0201FA0CF0CF
:1003400021FA02F10CE002F11402D8BFC2F1200C34
:1003500001FA02F120FA0CFCDCBF41EA0C019040EA
:10036000E41AA2BF01EB0451294330BD6FEA040433
:100370001F3C1CDA0C340EDC04F11404C4F120021E
:1003800020FA04F001FA02F340EA030021FA04F330
:1003900045EA030130BDC4F10C04C4F1200220FA87
:1003A00002F001FA04F340EA0300294630BD21FAC5
:1003B00004F0294630BD94F0000F83F4801306BF8B
:1003C00081F480110134013D4EE77FEA645C18BF7F
:1003D0007FEA655C29D094EA050F08BF90EA020F16
:1003E00005D054EA000C04BF1946104630BD91EA0E
:1003F000030F1EBF0021002030BD5FEA545C05D111
:100400004000494128BF41F0004130BD14F580044F
:100410003CBF01F5801130BD01F0004545F0FE41C3
:1004200041F470014FF0000030BD7FEA645C1ABFF8
:10043000194610467FEA655C1CBF0B46024650EA2F
:10044000013406BF52EA033591EA030F41F400215B
:1004500030BD00BF90F0000F04BF0021704730B5E1
:100460004FF4806404F132044FF000054FF00001B6
:1004700050E700BF90F0000F04BF0021704730B577
:100480004FF4806404F1320410F0004548BF40424C
:100490004FF000013EE700BF42004FEAE2014FEAA1
:1004A00031014FEA02701FBF12F07F4393F07F4F7C
:1004B00081F06051704732F07F4208BF704793F07F
:1004C0007F4F04BF41F40021704730B54FF4607492
:1004D00001F0004521F000411CE700BF50EA010295
:1004E00008BF704730B54FF000050AE050EA01023E
:1004F00008BF704730B511F0004502D5404261EBAE
:1005000041014FF4806404F132045FEA915C3FF4EE
:10051000D8AE4FF003025FEADC0C18BF03325FEA8B
:10052000DC0C18BF033202EBDC02C2F1200300FA3C
:1005300003FC20FA02F001FA03FE40EA0E0021FA61
:1005400002F11444BDE600BF70B54FF0FF0C4CF44F
:10055000E06C1CEA11541DBF1CEA135594EA0C0F01
:1005600095EA0C0F00F0DEF82C4481EA030621EA3C
:100570004C5123EA4C5350EA013518BF52EA033577
:1005800041F4801143F4801338D0A0FB02CE4FF029
:100590000005E1FB02E506F00042E0FB03E54FF059
:1005A0000006E1FB03569CF0000F18BF4EF0010E51
:1005B000A4F1FF04B6F5007F64F5407404D25FEA4D
:1005C0004E0E6D4146EB060642EAC62141EA555100
:1005D0004FEAC52040EA5E504FEACE2EB4F1FD0C42
:1005E00088BFBCF5E06F1ED8BEF1004F08BF5FEAC0
:1005F000500E50F1000041EB045170BD06F0004672
:1006000046EA010140EA020081EA0301B4EB5C041E
:10061000C2BFD4EB0C0541EA045170BD41F4801116
:100620004FF0000E013C00F3AB8014F1360FDEBF3B
:10063000002001F0004170BDC4F10004203C35DA17
:100640000C341BDC04F11404C4F1200500FA05F39A
:1006500020FA04F001FA05F240EA020001F000423B
:1006600021F0004110EBD37021FA04F642EB0601B1
:100670005EEA430E08BF20EAD37070BDC4F10C04DB
:10068000C4F1200500FA04F320FA05F001FA04F29F
:1006900040EA020001F0004110EBD37041F100018B
:1006A0005EEA430E08BF20EAD37070BDC4F1200596
:1006B00000FA05F24EEA020E20FA04F301FA05F2FE
:1006C00043EA020321FA04F001F0004121FA04F2A6
:1006D00020EA020000EBD3705EEA430E08BF20EA76
:1006E000D37070BD94F0000F0FD101F000464000B0
:1006F00041EB010111F4801F08BF013CF7D041EA32
:10070000060195F0000F18BF704703F00046520035
:1007100043EB030313F4801F08BF013DF7D043EA06
:100720000603704794EA0C0F0CEA135518BF95EABC
:100730000C0F0CD050EA410618BF52EA4306D1D143
:1007400081EA030101F000414FF0000070BD50EA62
:10075000410606BF1046194652EA430619D094EAEC
:100760000C0F02D150EA013613D195EA0C0F05D1D6
:1007700052EA03361CBF104619460AD181EA03012A
:1007800001F0004141F0FE4141F470014FF00000E2
:1007900070BD41F0FE4141F4780170BD70B54FF07D
:1007A000FF0C4CF4E06C1CEA11541DBF1CEA1355FD
:1007B00094EA0C0F95EA0C0F00F0A7F8A4EB0504DF
:1007C00081EA030E52EA03354FEA013100F08880D6
:1007D0004FEA03334FF0805545EA131343EA12639F
:1007E0004FEA022245EA111545EA10654FEA002654
:1007F0000EF000419D4208BF964244F1FD0404F50D
:10080000407402D25B084FEA3202B61A65EB030568
:100810005B084FEA32024FF480104FF4002CB6EB25
:10082000020E75EB030E22BFB61A754640EA0C00A5
:100830005B084FEA3202B6EB020E75EB030E22BFE5
:10084000B61A754640EA5C005B084FEA3202B6EB26
:10085000020E75EB030E22BFB61A754640EA9C00E5
:100860005B084FEA3202B6EB020E75EB030E22BFB5
:10087000B61A754640EADC0055EA060E18D04FEA73
:10088000051545EA16754FEA06164FEAC30343EA13
:1008900052734FEAC2025FEA1C1CC0D111F4801FE0
:1008A0000BD141EA00014FF000004FF0004CB6E7D9
:1008B00011F4801F04BF01430020B4F1FD0C88BF78
:1008C000BCF5E06F3FF6AFAEB5EB030C04BFB6EB83
:1008D000020C5FEA500C50F1000041EB045170BD76
:1008E0000EF0004E4EEA113114EB5C04C2BFD4EBA3
:1008F0000C0541EA045170BD41F480114FF0000E27
:10090000013C90E645EA060E8DE60CEA135594EAA2
:100910000C0F08BF95EA0C0F3FF43BAF94EA0C0FA5
:100920000AD150EA01347FF434AF95EA0C0F7FF41A
:1009300025AF104619462CE795EA0C0F06D152EA6E
:1009400003353FF4FDAE1046194622E750EA410652
:1009500018BF52EA43067FF4C5AE50EA41047FF463
:100960000DAF52EA43057FF4EBAE12E74FF0FF3CC8
:1009700006E000BF4FF0010C02E000BF4FF0010C99
:100980004DF804CD4FEA410C7FEA6C5C4FEA430C12
:1009900018BF7FEA6C5C1BD001B050EA410C0CBF61
:1009A00052EA430C91EA030F02BF90EA020F0020C3
:1009B000704710F1000F91EA030F58BF994208BF2A
:1009C00090422CBFD8176FEAE37040F001007047E7
:1009D0004FEA410C7FEA6C5C02D150EA013C07D13E
:1009E0004FEA430C7FEA6C5CD6D152EA033CD3D089
:1009F0005DF8040B704700BF8446104662468C4683
:100A00001946634600E000BF01B5FFF7B7FF0028B5
:100A100048BF10F1000F01BD4DF808EDFFF7F4FFDE
:100A20000CBF012000205DF808FB00BF4DF808ED69
:100A3000FFF7EAFF34BF012000205DF808FB00BF8C
:100A40004DF808EDFFF7E0FF94BF012000205DF8AE
:100A500008FB00BF4DF808EDFFF7CEFF94BF012063
:100A600000205DF808FB00BF4DF808EDFFF7C4FF5C
:100A700034BF012000205DF808FB00BF4FEA4102AF
:100A8000B2F1E04324BFB3F5001CDCF1FE5C0DD9EC
:100A900001F0004C4FEAC0024CEA5070B2F1004F36
:100AA00040EB830008BF20F00100704711F0804F39
:100AB00021D113F13872BCBF01F00040704741F4FE
:100AC00080114FEA5252C2F11802C2F1200C10FA02
:100AD0000CF320FA02F018BF40F001004FEAC123E6
:100AE0004FEAD32303FA0CFC40EA0C0023FA02F38A
:100AF0004FEA4303CCE77FEA625307D150EA013360
:100B00001EBF4FF0FE4040F44000704701F000402F
:100B100040F0FE4040F40000704700BF53B94AB9AE
:100B2000002908BF00281CBF4FF0FF314FF0FF30F5
:100B300000F088B9ADF1080C6DE904CE00F006F8BC
:100B4000DDF804E0DDE9022304B070472DE9F04749
:100B5000089D8E4604468846002B4AD18A42174695
:100B600062D9B2FA82F64EB1C6F1200301FA06F854
:100B700020FA03F3B74043EA0808B4404FEA174E9F
:100B80001FFA87FCB8FBFEF1230C0EFB118843EA29
:100B9000084301FB0CF29A4209D9FB1801F1FF301E
:100BA00080F0EA809A4240F2E78002393B449A1A88
:100BB000A3B2B2FBFEF00EFB102243EA024300FB9D
:100BC0000CFC9C4509D9FB1800F1FF3280F0D6805F
:100BD0009C4540F2D3803B44023840EA0140A3EBFD
:100BE0000C0300211DB1F3400022C5E90032BDE82D
:100BF000F0878B4205D90DB1C5E9000100210846F7
:100C0000F5E7B3FA83F1002946D1734502D3824256
:100C100000F20581841A6EEB030201209046002D3C
:100C2000E5D0C5E90048E2E7002A00F09080B2FA7A
:100C300082F6002E40F0A4808A1A030C4FEA174E69
:100C400080B2BCB20121B2FBFEFC0EFB1C2243EAC7
:100C5000024304FB0CF29A4207D9FB180CF1FF384F
:100C600002D29A4200F2E080C4469B1AB3FBFEF225
:100C70000EFB123340EA034302FB04F49C4207D903
:100C8000FB1802F1FF3002D29C4200F2CA800246F9
:100C90001B1B42EA0C40A5E7C1F120068B4022FA5B
:100CA00006F71F430EFA01F420FA06F32EFA06FEA9
:100CB0004FEA1749234300FA01F81FFA87FCBEFBED
:100CC000F9F01C0C09FB10EE44EA0E4400FB0CFE8C
:100CD000A64502FA01F209D93C1900F1FF3A80F069
:100CE0009C80A64540F2998002383C44A4EB0E0457
:100CF0001FFA83FEB4FBF9F309FB13444EEA0444E4
:100D000003FB0CFCA44508D93C1903F1FF3E80F01D
:100D10008280A4457FD9023B3C4443EA0040A4EBD7
:100D20000C04A0FB02EC64457346E14662D35FD03D
:100D30005DB1B8EB030264EB090404FA06F622FA8B
:100D400001F31E43CC40C5E9006400214FE7B1FB2D
:100D5000F2FC010C41EA0E4180B240EA01423B46FE
:100D600038463C46B846BE462026B1FBF7F1A2EB1A
:100D7000080241EA0C4166E7014618E710462CE7F5
:100D8000C6F120022EFA02F3B740B14020FA02F277
:100D90004FEA174E0A43B3FBFEF8BCB20EFB183302
:100DA000110C41EA034108FB04F9B04089454FEAC0
:100DB000104380B23ED9791808F1FF3C01D2894531
:100DC0001FD8A1EB0901B1FBFEF909FB04F80EFBEA
:100DD000191192B242EA0142424529D2BA1809F1E8
:100DE000FF31C4D24245C2D2A9F102013A44BEE762
:100DF000F0459DD2BEEB02036CEB070C0138E146D7
:100E000096E7A7EB09094944A8F1020CB1FBFEF9EA
:100E100009FB04F8DBE773467FE7504666E70846C0
:100E2000FDE63B44023A33E7ACF1020C3B441CE7DD
:100E300049469CE7A1EB0901C446B1FBFEF909FB59
:100E400004F8C4E7704700BF10F8012B11F8013B0C
:100E5000012A28BF9A42F7D0D01A7047034613F8E8
:100E6000012B002AFBD1181A01387047000000003E
:100E700001F0FF01102A2BDB10F0070F08D010F84B
:100E8000013B013A8B422DD010F0070F42B3F6D14F
:100E9000F0B441EA012141EA014122F007047FF068
:100EA00000070023F0E80256083C85EA010586EABF
:100EB000010685FA47F5A3FA87F586FA47F6A5FAFB
:100EC00087F68EB9EED1F0BC01F0FF0102F0070207
:100ED00032B110F8013B013A83EA010313B1F8D1B2
:100EE0000020704701387047002D06BF3546033893
:100EF000073815F0010F07D1013015F4807F02BFCC
:100F0000013015F4C03F0130F0BC0138704700BF1C
:100F10004FEA410C7FEA6C5C02D150EA013C0AD1F5
:100F20004FEA430C7FEA6C5C02D152EA033C02D1E7
:100F30004FF0000070474FF0010070470244034635
:100F4000934200D1704703F8011BF9E770B50D4DCE
:100F50000D4C641BA4100026A64209D10B4D0C4C6D
:100F600019F0FAFC641BA4100026A64205D170BD3E
:100F700055F8043B98470136EEE755F8043B98478F
:100F80000136F2E788C5010888C5010888C501084F
:100F90008CC501087047704738B50546002941D017
:100FA00051F8043C0C1F002BB8BFE41800F0E0F827
:100FB0001D4A136833B9636014602846BDE83840A1
:100FC00000F0DCB8A34208D9206821188B4201BF89
:100FD00019685B6809182160EDE71A465B680BB178
:100FE000A342FAD911685018A0420BD120680144DD
:100FF000501883421160E0D118685B685360084460
:101000001060DAE702D90C232B60D6E7206821189C
:101010008B4204BF19685B68636004BF09182160D4
:101020005460CAE738BD00BFB006002070B50F4E4F
:101030000C463168054611B900F0A6F8306021462B
:10104000284600F0A1F8431C03D14FF0FF3420469E
:1010500070BDC41C24F00304A042F8D0211A284615
:1010600000F092F80130F2D1EFE700BFAC060020AB
:101070002DE9F843CD1C25F0030508350C2D38BFAC
:101080000C25002D064601DBA94204D90C23336050
:101090000020BDE8F883DFF8D48000F069F8D8F8C4
:1010A00000301C4644BB29463046FFF7BFFF431CB7
:1010B000044658D1D8F800402746002F43D1002CD1
:1010C0004BD023683946304604EB030900F05CF846
:1010D000814542D121686D1A29463046FFF7A6FFA7
:1010E00001303AD023682B442360D8F800305A6886
:1010F00062BBC8F800700FE02268521B20D40B2A94
:1011000017D96119A342256018BF5960636808BFE9
:10111000C8F8001062514B60304600F02FF804F11F
:101120000B00231D20F00700C21A1CBF1B1AA3507E
:10113000AFE76268A3420CBFC8F800205A60EBE733
:1011400023466468AEE73C467F68B6E71A465B68AC
:10115000A342FBD100235360DEE70C23336030460B
:1011600000F00CF894E70560D6E700BFB006002059
:101170000148FFF70FBF00BFA80600200148FFF796
:101180000ABF00BFA806002038B5064D002304465C
:1011900008462B600FF08AFF431C02D12B6803B175
:1011A000236038BDA406002080B400AF064BD3F8FE
:1011B0008830054A43F47003C2F8883000BFBD464A
:1011C0005DF8047B704700BF00ED00E080B582B0A1
:1011D00000AF78607B68002B01D1012341E07B6880
:1011E00093F83D30DBB2002B06D17B68002283F8F8
:1011F0003C2078680EF0A2FE7B68022283F83D2036
:101200007B681A687B6804331946104600F00CFDB1
:101210007B68012283F846207B68012283F83E2008
:101220007B68012283F83F207B68012283F84020FD
:101230007B68012283F841207B68012283F84220E9
:101240007B68012283F843207B68012283F84420D5
:101250007B68012283F845207B68012283F83D20CA
:10126000002318460837BD4680BD000080B485B015
:1012700000AF78607B6893F83D30DBB2012B01D082
:1012800001234EE07B68022283F83D207B681B68C7
:10129000DA687B681B6842F00102DA607B681B68D1
:1012A000234A934222D07B681B68B3F1804F1DD044
:1012B0007B681B681F4A934218D07B681B681E4AD4
:1012C000934213D07B681B681C4A93420ED07B6804
:1012D0001B681B4A934209D07B681B68194A9342DA
:1012E00004D07B681B68184A934211D17B681B6845
:1012F0009B6803F00703FB60FB68062B10D07B683C
:101300001B681A687B681B6842F001021A6007E0DC
:101310007B681B681A687B681B6842F001021A60D0
:10132000002318461437BD465DF8047B704700BFA4
:10133000000001400004004000080040000C004094
:1013400000040140004001400018004080B582B018
:1013500000AF78607B68002B01D1012341E07B68FE
:1013600093F83D30DBB2002B06D17B68002283F876
:101370003C20786800F039F87B68022283F83D2031
:101380007B681A687B6804331946104600F04CFCF1
:101390007B68012283F846207B68012283F83E2087
:1013A0007B68012283F83F207B68012283F840207C
:1013B0007B68012283F841207B68012283F8422068
:1013C0007B68012283F843207B68012283F8442054
:1013D0007B68012283F845207B68012283F83D2049
:1013E000002318460837BD4680BD80B483B000AFE7
:1013F000786000BF0C37BD465DF8047B704780B550
:1014000082B000AF78607B68002B01D1012341E0FE
:101410007B6893F83D30DBB2002B06D17B6800225D
:1014200083F83C20786800F039F87B68022283F862
:101430003D207B681A687B6804331946104600F02B
:10144000F3FB7B68012283F846207B68012283F846
:101450003E207B68012283F83F207B68012283F8CD
:1014600040207B68012283F841207B68012283F8B9
:1014700042207B68012283F843207B68012283F8A5
:1014800044207B68012283F845207B68012283F891
:101490003D20002318460837BD4680BD80B483B088
:1014A00000AF786000BF0C37BD465DF8047B704725
:1014B00080B584B000AF786039603B68002B09D1FB
:1014C0007B6893F83E30DBB2012B14BF012300236D
:1014D000DBB222E03B68042B09D17B6893F83F30F4
:1014E000DBB2012B14BF01230023DBB215E03B6804
:1014F000082B09D17B6893F84030DBB2012B14BF75
:1015000001230023DBB208E07B6893F84130DBB2B3
:10151000012B14BF01230023DBB2002B01D00123D8
:101520007CE03B68002B04D17B68022283F83E20DC
:1015300013E03B68042B04D17B68022283F83F2030
:101540000BE03B68082B04D17B68022283F8402023
:1015500003E07B68022283F841207B681B6801223C
:101560003968184600F050FE7B681B682D4A93428C
:1015700004D07B681B682C4A934201D1012300E010
:101580000023002B07D07B681B685A6C7B681B68A4
:1015900042F400425A647B681B68224A934222D07C
:1015A0007B681B68B3F1804F1DD07B681B681F4AA6
:1015B000934218D07B681B681D4A934213D07B6806
:1015C0001B681C4A93420ED07B681B68164A9342E4
:1015D00009D07B681B68184A934204D07B681B685B
:1015E000164A934211D17B681B689B6803F007037E
:1015F000FB60FB68062B10D07B681B681A687B6851
:101600001B6842F001021A6007E07B681B681A68D9
:101610007B681B6842F001021A60002318461037ED
:10162000BD4680BD000001400004014000040040B0
:1016300000080040000C004000400140001800403D
:1016400080B584B000AF78607B681B68DB68FB60A6
:101650007B681B681B69BB60BB6803F00203002B3F
:1016600020D0FB6803F00203002B1BD07B681B68B3
:101670006FF002021A617B6801221A777B681B688F
:101680009B6903F00303002B03D0786800F0B7FADE
:1016900005E0786800F0A9FA786811F0DBF87B685B
:1016A00000221A77BB6803F00403002B20D0FB68EC
:1016B00003F00403002B1BD07B681B686FF004024F
:1016C0001A617B6802221A777B681B689B6903F4A6
:1016D0004073002B03D0786800F091FA05E0786839
:1016E00000F083FA786811F0B5F87B6800221A7769
:1016F000BB6803F00803002B20D0FB6803F008034D
:10170000002B1BD07B681B686FF008021A617B6896
:1017100004221A777B681B68DB6903F00303002B44
:1017200003D0786800F06BFA05E0786800F05DFAA5
:10173000786811F08FF87B6800221A77BB6803F095
:101740001003002B20D0FB6803F01003002B1BD0EC
:101750007B681B686FF010021A617B6808221A7799
:101760007B681B68DB6903F44073002B03D0786847
:1017700000F045FA05E0786800F037FA786811F073
:1017800069F87B6800221A77BB6803F00103002B1D
:101790000CD0FB6803F00103002B07D07B681B68AB
:1017A0006FF001021A6178680DF06EFDBB6803F0FE
:1017B0008003002B0CD0FB6803F08003002B07D0C4
:1017C0007B681B686FF080021A61786800F01AFE6F
:1017D000BB6803F04003002B0CD0FB6803F0400310
:1017E000002B07D07B681B686FF040021A61786895
:1017F00000F00FFABB6803F02003002B0CD0FB684D
:1018000003F02003002B07D07B681B686FF02002D9
:101810001A61786800F0ECFD00BF1037BD4680BD4E
:1018200080B586B000AFF860B9607A600023FB75C0
:10183000FB6893F83C30012B01D1022348E0FB68A0
:10184000012283F83C207B680C2B39D801A252F886
:1018500023F000BF89180008C1180008C11800084B
:10186000C118000897180008C1180008C11800081E
:10187000C1180008A5180008C1180008C118000800
:10188000C1180008B3180008FB681B68B96818463F
:1018900000F070FA17E0FB681B68B968184600F0A2
:1018A000D9FA10E0FB681B68B968184600F048FBDD
:1018B00009E0FB681B68B968184600F0B5FB02E058
:1018C0000123FB7500BFFB68002283F83C20FB7DF1
:1018D00018461837BD4680BD80B586B000AFF860A9
:1018E000B9607A600023FB75FB6893F83C30012BEC
:1018F00001D10223AEE0FB68012283F83C207B6823
:101900000C2B00F29F8001A252F823F0411900082D
:10191000451A0008451A0008451A000881190008F0
:10192000451A0008451A0008451A0008C31900089E
:10193000451A0008451A0008451A0008031A00084D
:10194000FB681B68B968184600F014FAFB681B684E
:101950009A69FB681B6842F008029A61FB681B6881
:101960009A69FB681B6822F004029A61FB681B6895
:101970009969BB681A69FB681B680A439A6164E04D
:10198000FB681B68B968184600F064FAFB681B68BE
:101990009A69FB681B6842F400629A61FB681B68E5
:1019A0009A69FB681B6822F480629A61FB681B6875
:1019B0009969BB681B691A02FB681B680A439A6134
:1019C00043E0FB681B68B968184600F0B9FAFB6889
:1019D0001B68DA69FB681B6842F00802DA61FB6881
:1019E0001B68DA69FB681B6822F00402DA61FB6895
:1019F0001B68D969BB681A69FB681B680A43DA610E
:101A000023E0FB681B68B968184600F00DFBFB6813
:101A10001B68DA69FB681B6842F40062DA61FB68E4
:101A20001B68DA69FB681B6822F48062DA61FB6874
:101A30001B68D969BB681B691A02FB681B680A43EB
:101A4000DA6102E00123FB7500BFFB68002283F826
:101A50003C20FB7D18461837BD4680BD80B584B05C
:101A600000AF786039600023FB737B6893F83C30EB
:101A7000012B01D10223B4E07B68012283F83C20D2
:101A80007B68022283F83D207B681B689B68BB60F3
:101A9000BB6823F07703BB60BB6823F47F43BB6064
:101AA0007B681B68BA689A603B681B68B3F5005F87
:101AB0003ED0B3F5005F00F28780B3F5805F00F0A1
:101AC0008680B3F5805F7FD8702B1AD0702B7BD8BF
:101AD000602B50D0602B77D8502B3CD0502B73D834
:101AE000402B58D0402B6FD8302B64D0302B6BD884
:101AF000202B60D0202B67D8002B5CD0102B5AD025
:101B000062E07B6818683B6899683B685A683B6884
:101B1000DB6800F059FB7B681B689B68BB60BB6897
:101B200043F07703BB607B681B68BA689A604FE03C
:101B30007B6818683B6899683B685A683B68DB6853
:101B400000F042FB7B681B689A687B681B6842F464
:101B500080429A603CE07B6818683B6859683B6843
:101B6000DB681A4600F0B6FA7B681B6850211846FD
:101B700000F00FFB2CE07B6818683B6859683B68F5
:101B8000DB681A4600F0D5FA7B681B6860211846AE
:101B900000F0FFFA1CE07B6818683B6859683B68F6
:101BA000DB681A4600F096FA7B681B6840211846ED
:101BB00000F0EFFA0CE07B681A683B681B68194676
:101BC000104600F0E6FA03E00123FB7300E000BFDB
:101BD0007B68012283F83D207B68002283F83C204B
:101BE000FB7B18461037BD4680BD80B483B000AF84
:101BF000786000BF0C37BD465DF8047B704780B449
:101C000083B000AF786000BF0C37BD465DF8047B41
:101C1000704780B483B000AF786000BF0C37BD461A
:101C20005DF8047B7047000080B485B000AF786039
:101C300039607B681B68FB607B68434A934213D022
:101C40007B68B3F1804F0FD07B68404A93420BD042
:101C50007B683F4A934207D07B683E4A934203D059
:101C60007B683D4A934208D1FB6823F07003FB6018
:101C70003B685B68FA681343FB607B68324A9342B7
:101C80002BD07B68B3F1804F27D07B682F4A9342DB
:101C900023D07B682E4A93421FD07B682D4A934203
:101CA0001BD07B682C4A934217D07B682B4A934207
:101CB00013D07B682A4A93420FD07B68294A93420B
:101CC0000BD07B68284A934207D07B68274A93420F
:101CD00003D07B68264A934208D1FB6823F4407303
:101CE000FB603B68DB68FA681343FB60FB6823F02A
:101CF00080023B685B691343FB603B689A687B68C2
:101D0000DA623B681A687B689A627B680E4A934283
:101D100003D07B68104A934203D13B681A697B6801
:101D20001A637B681B6843F004027B681A607B6857
:101D300001225A617B68FA681A6000BF1437BD46F9
:101D40005DF8047B704700BF0000014000040040C4
:101D500000080040000C0040000401400040014029
:101D6000004401400048014000180040001C0040B1
:101D70000020004080B487B000AF786039607B6895
:101D80001B6A7B617B681B6A23F001027B681A6215
:101D90007B685B683B617B689B69FB60FB6823F049
:101DA0007003FB60FB6823F00303FB603B681B6868
:101DB000FA681343FB607B6923F002037B613B6895
:101DC0009B687A6913437B617B68204A934203D006
:101DD0007B681F4A93420CD17B6923F008037B6127
:101DE0003B68DB687A6913437B617B6923F00403FA
:101DF0007B617B68154A934203D07B68144A934207
:101E000011D13B6923F480733B613B6923F4007378
:101E10003B613B685B693A6913433B613B689B6983
:101E20003A6913433B617B683A695A607B68FA6898
:101E30009A613B685A687B685A637B687A691A6260
:101E400000BF1C37BD465DF8047B704700000140B1
:101E50000004014080B487B000AF786039607B68CF
:101E60001B6A7B617B681B6A23F010027B681A6225
:101E70007B685B683B617B689B69FB60FB6823F464
:101E8000E043FB60FB6823F44073FB603B681B6826
:101E90001B02FA681343FB607B6923F020037B611C
:101EA0003B689B681B017A6913437B617B68224A0C
:101EB000934203D07B68214A93420DD17B6923F082
:101EC00080037B613B68DB681B017A6913437B619C
:101ED0007B6923F040037B617B68174A934203D000
:101EE0007B68164A934213D13B6923F480633B61BC
:101EF0003B6923F400633B613B685B699B003A6983
:101F000013433B613B689B699B003A6913433B6108
:101F10007B683A695A607B68FA689A613B685A68DC
:101F20007B689A637B687A691A6200BF1C37BD467A
:101F30005DF8047B704700BF0000014000040140D1
:101F400080B487B000AF786039607B681B6A7B61C2
:101F50007B681B6A23F480727B681A627B685B680B
:101F60003B617B68DB69FB60FB6823F07003FB600F
:101F7000FB6823F00303FB603B681B68FA681343AC
:101F8000FB607B6923F400737B613B689B681B02E9
:101F90007A6913437B617B68214A934203D07B6853
:101FA000204A93420DD17B6923F400637B613B6837
:101FB000DB681B027A6913437B617B6923F48063CE
:101FC0007B617B68164A934203D07B68154A934233
:101FD00013D13B6923F480533B613B6923F40053E5
:101FE0003B613B685B691B013A6913433B613B689A
:101FF0009B691B013A6913433B617B683A695A60EC
:102000007B68FA68DA613B685A687B68DA637B68E8
:102010007A691A6200BF1C37BD465DF8047B7047C1
:10202000000001400004014080B487B000AF786038
:1020300039607B681B6A3B617B681B6A23F48052B2
:102040007B681A627B685B687B617B68DB69FB602D
:10205000FB6823F4E043FB60FB6823F44073FB6000
:102060003B681B681B02FA681343FB603B6923F45F
:1020700000533B613B689B681B033A6913433B6118
:102080007B68124A934203D07B68114A934209D17C
:102090007B6923F480437B613B685B699B017A69C0
:1020A00013437B617B687A695A607B68FA68DA61FE
:1020B0003B685A687B681A647B683A691A6200BF99
:1020C0001C37BD465DF8047B704700BF000001402F
:1020D0000004014080B487B000AFF860B9607A6056
:1020E000FB681B6A7B61FB681B6A23F00102FB68CB
:1020F0001A62FB689B693B613B6923F0F0033B611B
:102100007B681B013A6913433B617B6923F00A0337
:102110007B617A69BB6813437B61FB683A699A61AA
:10212000FB687A691A6200BF1C37BD465DF8047B04
:10213000704780B487B000AFF860B9607A60FB6820
:102140001B6A7B61FB681B6A23F01002FB681A6242
:10215000FB689B693B613B6923F470433B617B688F
:102160001B033A6913433B617B6923F0A0037B6146
:10217000BB681B017A6913437B61FB683A699A610A
:10218000FB687A691A6200BF1C37BD465DF8047BA4
:10219000704780B485B000AF786039607B689B6819
:1021A000FB60FB6823F07003FB603A68FB68134335
:1021B00043F00703FB607B68FA689A6000BF14373E
:1021C000BD465DF8047B704780B487B000AFF8600F
:1021D000B9607A603B60FB689B687B617B6923F434
:1021E0007F437B613B681A027B681A43BB681343D9
:1021F0007A6913437B61FB687A699A6000BF1C3778
:10220000BD465DF8047B704780B487B000AFF860CE
:10221000B9607A60BB6803F01F03012202FA03F37E
:102220007B61FB681A6A7B69DB431A40FB681A62B0
:10223000FB681A6ABB6803F01F03796801FA03F3AD
:102240001A43FB681A6200BF1C37BD465DF8047B69
:102250007047000080B485B000AF786039607B685B
:1022600093F83C30012B01D102235AE07B68012214
:1022700083F83C207B68022283F83D207B681B6842
:102280005B68FB607B681B689B68BB60FB6823F036
:102290007003FB603B681B68FA681343FB607B6854
:1022A0001B68FA685A607B681B68214A934222D0F7
:1022B0007B681B68B3F1804F1DD07B681B681D4A8B
:1022C000934218D07B681B681B4A934213D07B68EB
:1022D0001B681A4A93420ED07B681B68184A9342C7
:1022E00009D07B681B68174A934204D07B681B683F
:1022F000154A93420CD1BB6823F08003BB603B6856
:102300005B68BA681343BB607B681B68BA689A60F5
:102310007B68012283F83D207B68002283F83C2003
:10232000002318461437BD465DF8047B704700BF94
:10233000000001400004004000080040000C004084
:1023400000040140004001400018004080B485B006
:1023500000AF786039600023FB607B6893F83C3005
:10236000012B01D102233DE07B68012283F83C2050
:10237000FB6823F0FF023B68DB681343FB60FB68EC
:1023800023F440723B689B681343FB60FB6823F4B3
:1023900080623B685B681343FB60FB6823F4006268
:1023A0003B681B681343FB60FB6823F480523B6867
:1023B0001B691343FB60FB6823F400523B685B69B5
:1023C0001343FB60FB6823F480423B68DB691343E3
:1023D000FB607B681B68FA685A647B68002283F89C
:1023E0003C20002318461437BD465DF8047B704737
:1023F00080B483B000AF786000BF0C37BD465DF895
:10240000047B704780B483B000AF786000BF0C37A6
:10241000BD465DF8047B704780B586B002AF78603A
:102420007B68002B01D1012301E17B681B68BB6045
:102430007B6893F89534DBB2002B06D17B680022D1
:1024400083F8942478680EF09FFA7B68032283F85F
:102450009524BB68B3F1A04F02D17B6800229A712A
:102460007B681B68184601F040FB7B6818687B6836
:102470001A7C8DF8002004330ECB01F01FFA0346BE
:10248000002B05D07B68022283F895240123CEE03F
:102490007B681B680021184601F038FB0346002BBF
:1024A00005D07B68022283F895240123BFE0002336
:1024B000FB734AE0FA7B79681346DB0013449B0008
:1024C0000B44153301221A70FA7B79681346DB003E
:1024D00013449B000B441433FA7B1A70FA7BFB7B8A
:1024E00098B279681346DB0013449B000B442E33EB
:1024F00002461A80FA7B79681346DB0013449B007E
:102500000B44183300221A70FA7B79681346DB00FB
:1025100013449B000B441C3300221A60FA7B796839
:102520001346DB0013449B000B44203300221A6047
:10253000FA7B79681346DB0013449B000B44243379
:1025400000221A60FB7B0133FB737B681B79FA7BEB
:102550009A42AFD30023FB7344E0FA7B79681346B9
:10256000DB0013449B000B4403F2552300221A7036
:10257000FA7B79681346DB0013449B000B4403F598
:102580001573FA7B1A70FA7B79681346DB001344E3
:102590009B000B4403F5167300221A70FA7B7968CE
:1025A0001346DB0013449B000B4403F51773002212
:1025B0001A60FA7B79681346DB0013449B000B44D6
:1025C00003F5187300221A60FA7B79681346DB0062
:1025D00013449B000B4403F5197300221A60FB7B24
:1025E0000133FB737B681B79FA7B9A42B5D37B6816
:1025F00018687B681A7C8DF8002004330ECB01F03C
:10260000D1FA0346002B05D07B68022283F895247B
:1026100001230CE07B6800225A747B68012283F856
:1026200095247B681B68184602F01BFB00231846A4
:102630001037BD4680BD80B584B000AF78607B6840
:102640001B68FB607B6893F89434012B01D1022353
:1026500022E07B68012283F89424FB68DB6803F0A6
:102660004003002B09D07B685B7B012B05D1FB6805
:102670009B6B43F48032FB689A637B681B68184647
:1026800001F022FA7B681B68184602F0C9FA7B68E1
:10269000002283F89424002318461037BD4680BDDD
:1026A00090B58DB000AF78607B681B683B623B6A79
:1026B000FB617B681B68184602F087FB0346002B12
:1026C00040F08C847B681B68184602F0EBFA0346E6
:1026D000002B00F08284FB6903F500639B681B0AF2
:1026E000C3F30D027B68C3F8D4247B681B681846CB
:1026F00002F0D8FA034603F00203022B07D17B68ED
:102700001B685A697B681B6802F002025A617B6889
:102710001B68184602F0C6FA034603F01003102B9C
:1027200061D17B681B689A697B681B6822F0100284
:102730009A613B6A1B6ABB61BB6903F00F021346D7
:10274000DB0013449B0003F514737A6813440433CD
:102750007B61BB6903F4F013B3F5802F24D1BA6910
:1027600047F6F0731340002B35D07B69D968BB69FD
:102770001B099BB2C3F30A039BB21A46386A02F0E4
:10278000FDF87B69DA68BB691B09C3F30A031A44C5
:102790007B69DA607B695A69BB691B09C3F30A0369
:1027A0001A447B695A6116E0BB6903F4F013B3F570
:1027B000402F10D17B6803F29C4308221946386AE7
:1027C00002F0DCF87B695A69BB691B09C3F30A0391
:1027D0001A447B695A617B681B689A697B681B682D
:1027E00042F010029A617B681B68184602F05AFAA0
:1027F000034603F40023B3F5002F40F0A780002325
:102800007B627B681B68184602F05FFAB86299E049
:10281000BB6A03F00103002B00F08E807B681B680D
:102820007A6AD2B21146184602F083FA38613B69DF
:1028300003F00103002B0CD07B6A5A01FB6913449F
:1028400003F530631A4601239360796A786800F0D3
:10285000A3FE3B6903F00803002B0CD07B6A5A01EE
:10286000FB69134403F530631A4608239360796AC1
:10287000786800F079FF3B6903F01003002B08D063
:102880007B6A5A01FB69134403F530631A4610232F
:1028900093603B6903F00203002B30D03B6A5B6915
:1028A00003F08003802B09D1FB6903F500635B68AB
:1028B000FA6902F5006243F4806353607A6A134652
:1028C000DB0013449B0003F514737A68134404334C
:1028D0007B617B69DB78012B08D17B690022DA7090
:1028E0007B6ADBB2194678680EF0E8F87B6A5A0119
:1028F000FB69134403F530631A46022393603B6976
:1029000003F02003002B08D07B6A5A01FB691344B3
:1029100003F530631A46202393603B6903F40053A8
:10292000002B09D07B6A5A01FB69134403F530631D
:102930001A464FF4005393607B6A01337B62BB6A93
:102940005B08BB62BB6A002B7FF462AF7B681B68CD
:10295000184602F0A7F9034603F48023B3F5802F4D
:1029600040F0DB807B681B68184602F0C8F9B8624B
:1029700000237B62CDE0BB6A03F00103002B00F073
:10298000C2807B681B687A6AD2B21146184602F090
:10299000EEF938613B6903F00103002B57D07B6AE5
:1029A00003F00F03012202FA03F3FB60FB6903F556
:1029B00000635A6BFB68DB43F96901F50061134062
:1029C0004B637B6A5A01FB69134403F510631A4693
:1029D000012393607B689B79012B32D179687A6AF5
:1029E0001346DB0013449B000B44203319687868BE
:1029F0007A6A1346DB0013449B0003441C331B68B4
:102A0000194478687A6A1346DB0013449B00034438
:102A1000203319607B6A002B13D179687A6A1346D8
:102A2000DB0013449B000B4424331B68002B08D1AC
:102A30007B6818687B6803F29C431A46012102F008
:102A4000F5F97B6ADBB2194678680DF0F3FF3B6954
:102A500003F00803002B08D07B6A5A01FB6913447A
:102A600003F510631A46082393603B6903F01003D3
:102A7000002B08D07B6A5A01FB69134403F51063ED
:102A80001A46102393603B6903F04003002B08D0E3
:102A90007B6A5A01FB69134403F510631A4640230D
:102AA00093603B6903F00203002B23D0796A386AF4
:102AB00001F0DCF97A6A1346DB0013449B00103303
:102AC0007A68134404337B617B69DB78012B08D17E
:102AD0007B690022DA707B6ADBB2194678680DF0F8
:102AE000F3FF7B6A5A01FB69134403F510631A462E
:102AF000022393603B6903F08003002B03D0796AC3
:102B0000786800F0BDFC7B6A01337B62BB6A5B08BE
:102B1000BB62BB6A002B7FF42EAF7B681B68184634
:102B200002F0C0F8034603F00043B3F1004F22D196
:102B3000FB6903F500635B68FA6902F5006223F044
:102B4000010353607B6893F8CC34012B08D17B6878
:102B5000002283F8CC240021786800F0A3FE02E074
:102B600078680DF0A5FF7B681B685A697B681B6855
:102B700002F000425A617B681B68184602F092F826
:102B8000034603F40063B3F5006F12D1FB6903F54C
:102B900000639B6803F00103012B02D178680DF0FC
:102BA0006FFF7B681B685A697B681B6802F40062D0
:102BB0005A617B681B68184602F074F8034603F4F8
:102BC0008053B3F5805F40F0B780FB6903F5006385
:102BD0005B68FA6902F5006223F0010353607B68C9
:102BE0001B681021184601F041F90023FB6246E002
:102BF000FB6A5A01FB69134403F510631A464FF64A
:102C00007F339360FB6A5A01FB69134403F5106339
:102C10001B68FA6A5101FA690A4402F5106223F44A
:102C200000131360FB6A5A01FB69134403F5306318
:102C30001A464FF67F339360FB6A5A01FB691344CF
:102C400003F530631B68FA6A5101FA690A4402F518
:102C5000306223F400131360FB6A5A01FB691344CA
:102C600003F530631B68FA6A5101FA690A4402F5F8
:102C7000306243F000631360FB6A0133FB627B68E0
:102C80001B791A46FB6A9342B2D3FB6903F50063D2
:102C9000DB69FA6902F5006243F00113D3617B68D6
:102CA000DB7B002B16D0FB6903F50063D3F884307F
:102CB000FA6902F5006243F00B03C2F88430FB6945
:102CC00003F500635B6CFA6902F5006243F00B03E5
:102CD000536415E0FB6903F500635B69FA6902F56B
:102CE000006243F4005343F02B035361FB6903F587
:102CF00000631B69FA6902F5006243F00B0313617C
:102D0000FB6903F500631B68FA6902F5006223F4AE
:102D1000FE6313607B6818687B6899797B6803F2AF
:102D20009C431A4602F082F87B681B685A697B68EC
:102D30001B6802F480525A617B681B68184601F0D8
:102D4000B1FF034603F40053B3F5005F23D17B6862
:102D50001B68184602F047F87B681B68184601F0AC
:102D6000FEF803461A467B68DA717B681C6802F03D
:102D700017FD01467B68DB791A46204600F002FE0B
:102D800078680DF068FE7B681B685A697B681B6871
:102D900002F400525A617B681B68184601F082FFFA
:102DA000034603F00803082B0AD178680DF04DFEA6
:102DB0007B681B685A697B681B6802F008025A61CD
:102DC0007B681B68184601F06DFF034603F0800323
:102DD000802B23D13B6A9B6923F080023B6A9A6176
:102DE00001237B6214E079687A6A1346DB0013449E
:102DF0009B000B4403F257231B78012B05D17B6A00
:102E0000DBB21946786800F00AFB7B6A01337B620B
:102E10007B681B791A467B6A9342E4D37B681B6804
:102E2000184601F03FFF034603F48013B3F5801FFB
:102E30003CD101237B622BE07B6A5A01FB6913447E
:102E400003F510631B68BB6179687A6A1346DB007F
:102E500013449B000B4418331B78012B15D1BB691D
:102E6000002B12DA79687A6A1346DB0013449B0060
:102E70000B44173301221A707B6ADBB263F07F03C5
:102E8000DBB21946786800F0CAFA7B6A01337B62CC
:102E90007B681B791A467B6A9342CDD37B681B689B
:102EA0005A697B681B6802F480125A617B681B6850
:102EB000184601F0F7FE034603F40013B3F5001FB4
:102EC00056D101237B6245E07B6A5A01FB691344BA
:102ED00003F530631B68BB6179687A6A1346DB00CF
:102EE00013449B000B4403F516731B78012B2ED162
:102EF000BB69002B2BDABB691A0C7B68D3F8D4347E
:102F0000534003F00103002B21D179687A6A1346FC
:102F1000DB0013449B000B4403F2572301221A7079
:102F20003B6A9B6943F080023B6A9A613B6A5B693A
:102F300003F08003002B0AD1FB6903F500635B6893
:102F4000FA6902F5006243F40073536008E07B6A9B
:102F500001337B627B681B791A467B6A9342B3D349
:102F60007B681B685A697B681B6802F400125A610F
:102F70007B681B68184601F095FE034603F080430A
:102F8000B3F1804F0AD178680DF0A4FD7B681B680F
:102F90005A697B681B6802F080425A617B681B6833
:102FA000184601F07FFE034603F00403042B15D1FD
:102FB0007B681B685B68BB61BB6903F00403002B83
:102FC00002D078680DF08CFD7B681B6859687B68BF
:102FD0001B68BA690A435A6000E000BF3437BD4637
:102FE00090BD80B582B000AF78600B46FB707B6807
:102FF00093F89434012B01D1022312E07B68012263
:1030000083F894247B68FA785A747B681B68FA7892
:103010001146184601F0DEFD7B68002283F89424F7
:10302000002318460837BD4680BD80B584B000AF88
:103030007860084611461A460346FB700B463B80F3
:103040001346BB700023FB7297F90330002B0FDA95
:10305000FB7803F00F021346DB0013449B00103390
:103060007A6813440433FB60FB6801225A700FE056
:10307000FB7803F00F021346DB0013449B0003F5BB
:1030800014737A6813440433FB60FB6800225A709F
:10309000FB7803F00F03DAB2FB681A703B88C3F3C6
:1030A0000A02FB689A60FB68BA781A71FB685B7861
:1030B000002B04D0FB681B781A46FB685A83BB7848
:1030C000022B02D1FB6800225A717B6893F894347A
:1030D000012B01D102230EE07B68012283F89424A6
:1030E0007B681B68F968184600F05EFF7B68002269
:1030F00083F89424FB7A18461037BD4680BD80B50E
:1031000084B000AF78600B46FB7097F90330002B5A
:103110000FDAFB7803F00F021346DB0013449B0029
:1031200010337A6813440433FB60FB6801225A7041
:103130000FE0FB7803F00F021346DB0013449B0003
:1031400003F514737A6813440433FB60FB680022B0
:103150005A70FB7803F00F03DAB2FB681A707B68D1
:1031600093F89434012B01D102230EE07B680122F5
:1031700083F894247B681B68F968184600F09CFF6C
:103180007B68002283F89424002318461037BD463C
:1031900080BD80B586B000AFF8607A603B600B46BA
:1031A000FB72FB7A03F00F021346DB0013449B0013
:1031B00003F51473FA68134404337B617B697A68FE
:1031C000DA607B693A681A617B6900225A617B691F
:1031D00000225A70FB7A03F00F03DAB27B691A708F
:1031E000FB689B79012B02D17A687B69DA61FB6805
:1031F0001868FB689B791A46796901F039F8002351
:1032000018461837BD4680BD80B483B000AF7860E3
:103210000B46FB70FB7803F00F0279681346DB0066
:1032200013449B000B4403F51A731B6818460C37B4
:10323000BD465DF8047B704780B586B000AFF8608E
:103240007A603B600B46FB72FB7A03F00F02134679
:10325000DB0013449B001033FA68134404337B6192
:103260007B697A68DA607B693A681A617B69002257
:103270005A617B6901225A70FB7A03F00F03DAB2BC
:103280007B691A70FB689B79012B02D17A687B6994
:10329000DA61FB681868FB689B791A46796900F067
:1032A000E7FF002318461837BD4680BD80B584B0BF
:1032B00000AF78600B46FB70FB7803F00F037A6871
:1032C0001279934201D901234FE097F90330002B83
:1032D0000FDAFB7803F00F021346DB0013449B0068
:1032E00010337A6813440433FB60FB6801225A7080
:1032F0000DE0FA781346DB0013449B0003F51473CA
:103300007A6813440433FB60FB6800225A70FB6840
:1033100001229A70FB7803F00F03DAB2FB681A708F
:103320007B6893F89434012B01D102231DE07B6864
:10333000012283F894247B681B68F968184601F021
:1033400075FBFB7803F00F03002B09D17B6818682D
:103350007B6899797B6803F29C431A4601F066FD0D
:103360007B68002283F89424002318461037BD465A
:1033700080BD80B584B000AF78600B46FB70FB78F1
:1033800003F00F037A681279934201D9012342E0D6
:1033900097F90330002B0FDAFB7803F00F02134686
:1033A000DB0013449B0010337A6813440433FB6042
:1033B000FB6801225A700FE0FB7803F00F021346FE
:1033C000DB0013449B0003F514737A681344043341
:1033D000FB60FB6800225A70FB6800229A70FB7841
:1033E00003F00F03DAB2FB681A707B6893F8943429
:1033F000012B01D102230EE07B68012283F8942483
:103400007B681B68F968184601F07EFB7B68002228
:1034100083F89424002318461037BD4680BD80B53C
:1034200084B000AF78600B46FB7097F90330002B37
:103430000CDAFB7803F00F021346DB0013449B0009
:1034400010337A6813440433FB600CE0FB7803F01C
:103450000F021346DB0013449B0003F514737A68D4
:1034600013440433FB607B681B68F968184601F05D
:103470009DF90346FB72FB7A18461037BD4680BDA6
:1034800080B58AB002AF786039607B681B687B6169
:103490007B693B613A681346DB0013449B001033A1
:1034A0007A6813440433FB60FB685A69FB681B6944
:1034B0009A4201D901236BE0FB681A69FB685B69DA
:1034C000D31AFB61FB689B68FA699A4202D9FB68D0
:1034D0009B68FB61FB6903339B08BB612AE0FB68C7
:1034E0001A69FB685B69D31AFB61FB689B68FA6920
:1034F0009A4202D9FB689B68FB61FB6903339B0816
:10350000BB61FB68D9683B68DAB2FB6998B27B683B
:103510009B7900930346786901F0F2F9FB68DA6859
:10352000FB691A44FB68DA60FB685A69FB691A4454
:10353000FB685A613B685A013B69134403F5106309
:103540009B699BB2BA699A4209D8FB685A69FB68C1
:103550001B699A4203D2FB681B69002BBFD1FB6831
:103560001A69FB685B699A4211D83B6803F00F0344
:10357000012202FA03F3BB603B6903F500635A6B57
:10358000BB68DB43396901F5006113404B630023DD
:1035900018462037BD4680BD80B588B000AF786042
:1035A00039607B681B68FB61FB69BB61FB693C336D
:1035B00004331B687B613B685A01BB69134403F504
:1035C00030639B683B617B689B79012B7BD13B69B6
:1035D00003F00803002B15D07B69614A934240F247
:1035E000B9803B6903F40043002B00F0B3803B68D3
:1035F0005A01BB69134403F530631A464FF4004384
:103600009360A7E03B6903F02003002B09D03B68DF
:103610005A01BB69134403F530631A4620239360B3
:1036200098E03B6903F02803002B40F093807B690E
:103630004B4A93420FD93B6903F40043002B0AD055
:103640003B685A01BB69134403F530631A464FF4D3
:10365000004393607EE03A681346DB0013449B000E
:1036600003F514737A6813440433FB60FB681A6A29
:103670003B685901BB690B4403F530631B69C3F315
:103680001203D21AFB685A613B68002B14D1FB6805
:103690001B69002B09D17B6818687B6803F29C4387
:1036A0001A46012101F0C2FB06E0FB68DA68FB68FC
:1036B0005B691A44FB68DA603B68DBB219467868DC
:1036C0000DF0ACF946E07B69264A934224D13B6970
:1036D00003F40043002B0AD03B685A01BB69134432
:1036E00003F530631A464FF40043936032E03B69C0
:1036F00003F02003002B08D03B685A01BB69134438
:1037000003F530631A46202393603B68DBB2194609
:1037100078680DF083F91DE03B68002B14D17968BF
:103720003A681346DB0013449B000B4403F51973FE
:103730001B68002B08D17B6818687B6803F29C43E8
:103740001A46002101F072FB3B68DBB2194678682B
:103750000DF064F9002318462037BD4680BD00BF38
:103760000A30544F0A31544F80B586B000AF7860AC
:1037700039607B681B687B617B693B617B693C339B
:1037800004331B68FB603B685A013B69134403F533
:1037900030639B68BB60FB68154A93420ED9BB68D7
:1037A00003F40043002B09D03B685A013B691344E2
:1037B00003F530631A464FF40043936078680DF0C8
:1037C00025F9FB680A4A93420CD97B689B79012B47
:1037D00008D17B6818687B6803F29C431A46012174
:1037E00001F024FB002318461837BD4680BD00BFFA
:1037F0000A30544F80B485B000AF78600B46FB7040
:1038000013463B807B681B685B6ABB60FB78002BC0
:1038100007D13B8819047B681B68BA680A439A621F
:1038200028E07B681B689B6A1B0CBA681344BB606A
:103830000023FB730DE07B681A68FB7B40339B0021
:1038400013445B681B0CBA681344BB60FB7B0133F9
:10385000FB73FA7BFB78013B9A42ECD33B8818045C
:103860007B681968FB78013BBA68024340339B00D0
:103870000B445A60002318461437BD465DF8047B9C
:10388000704780B483B000AF78600B467B807B6864
:103890001B687A885A62002318460C37BD465DF8CB
:1038A000047B704780B483B000AF78600B46FB7038
:1038B00000BF0C37BD465DF8047B704784B080B50F
:1038C00084B000AF786007F11C0080E80E0097F824
:1038D0002130012B23D17B689B6B23F480327B68E2
:1038E0009A637B68DB6823F4840323F040037A68DF
:1038F000D3607B68DB6823F440127B68DA6097F85A
:103900002830012B05D17B68DB6843F480127B688B
:10391000DA60786801F0E8FA0346FB731BE07B6825
:10392000DB6843F040027B68DA60786801F0DCFA1B
:103930000346FB7397F82530002B06D17B689B6B01
:1039400043F480327B689A6305E07B689B6B23F4C9
:1039500080327B689A63BB7F012B0BD17B689B68AD
:1039600043F006027B689A607B689B6843F0200204
:103970007B689A60FB7B18461037BD46BDE88040E7
:1039800004B0704780B487B000AFF860B9601346E8
:10399000FB71FB79022B65D1BB68414A934206D982
:1039A000BB68404A934202D20F237B6162E0BB684E
:1039B0003C4A934206D3BB683B4A934202D20E2351
:1039C0007B6157E0BB68384A934206D3BB68374AED
:1039D000934202D20D237B614CE0BB68334A934291
:1039E00006D3BB68324A934202D80C237B6141E084
:1039F000BB682F4A934206D9BB682E4A934202D82D
:103A00000B237B6136E0BB682A4A934206D9BB6828
:103A1000294A934202D80A237B612BE0BB68264ADD
:103A2000934206D9BB68254A934202D209237B619F
:103A300020E0BB68214A934206D3BB68204A9342E8
:103A400002D808237B6115E0BB681D4A934206D962
:103A5000BB681C4A934202D207237B610AE006231B
:103A60007B6107E0FB79002B02D109237B6101E038
:103A700009237B61FB68DB6823F47052FB68DA6022
:103A8000FB68DA687B699B0203F470531A43FB6896
:103A9000DA60002318461C37BD465DF8047B70478A
:103AA000BFACD800C0E1E4000024F400807306013C
:103AB0009F491A01FF2C31013FA44C0100366E01D1
:103AC0001FABA6010048E80180B483B000AF786066
:103AD0007B689B6843F001027B689A60002318466C
:103AE0000C37BD465DF8047B704780B483B000AFEF
:103AF00078607B689B6823F001027B689A600023F2
:103B000018460C37BD465DF8047B704780B584B01D
:103B100000AF78600B46FB700023FB607B68DB68BE
:103B200023F0C0427B68DA60FB78012B15D17B68FB
:103B3000DB6843F000527B68DA600A2003F00EF87D
:103B4000FB680A33FB60786801F03FF90346012BFC
:103B50001ED0FB68C72BF0D91AE0FB78002B15D1DB
:103B60007B68DB6843F080427B68DA600A2002F001
:103B7000F5FFFB680A33FB60786801F026F903461D
:103B8000002B05D0FB68C72BF0D901E0012305E02D
:103B9000FB68C82B01D1012300E000231846103731
:103BA000BD4680BD84B080B586B000AF786007F1B7
:103BB000240080E80E000023FB757B68FB60002377
:103BC0003B6109E07A683B6940339B001344002263
:103BD0005A603B6901333B613B690E2BF2D997F880
:103BE0002E30002B1CD1FB6803F500635B68FA687C
:103BF00002F5006243F0020353607B689B6B43F461
:103C000000127B689A637B689B6B23F400227B68BD
:103C10009A637B689B6B23F480227B689A630BE03A
:103C20007B689B6B23F400127B689A637B689B6BB9
:103C300043F400227B689A63FB6803F560631A46CD
:103C40000023136097F82930012B0DD197F8273006
:103C5000002B04D10021786800F068F908E0012108
:103C6000786800F063F903E00321786800F05EF9FA
:103C70001021786800F0FAF80346002B01D00123E8
:103C8000FB75786800F024F90346002B01D001236E
:103C9000FB75FB6803F500631A4600231361FB689C
:103CA00003F500631A4600235361FB6803F50063C4
:103CB0001A460023D36100233B6143E03B695A016C
:103CC000FB68134403F510631B6803F00043B3F172
:103CD000004F18D13B69002B0AD13B695A01FB68A0
:103CE000134403F510631A464FF00063136013E0AA
:103CF0003B695A01FB68134403F510631A464FF001
:103D00009043136008E03B695A01FB68134403F5D4
:103D100010631A46002313603B695A01FB68134481
:103D200003F510631A46002313613B695A01FB68CF
:103D3000134403F510631A464FF67F3393603B69D3
:103D400001333B6197F824301A463B699342B5D35F
:103D500000233B6143E03B695A01FB68134403F5D0
:103D600030631B6803F00043B3F1004F18D13B6987
:103D7000002B0AD13B695A01FB68134403F53063F9
:103D80001A464FF00063136013E03B695A01FB6869
:103D9000134403F530631A464FF09043136008E074
:103DA0003B695A01FB68134403F530631A4600234C
:103DB00013603B695A01FB68134403F530631A46EC
:103DC000002313613B695A01FB68134403F5306318
:103DD0001A464FF67F3393603B6901333B6197F896
:103DE00024301A463B699342B5D3FB6803F5006360
:103DF0001B69FA6802F5006223F4807313617B6823
:103E000000229A617B686FF080425A6197F82630F1
:103E1000002B05D17B689B6943F010027B689A6197
:103E20007B689A69104B13437A68936197F82A303C
:103E3000002B05D07B689B6943F008027B689A6180
:103E400097F82E30012B07D17B689B6943F08043A4
:103E500043F004037A689361FB7D18461837BD462A
:103E6000BDE8804004B0704700383C8080B485B025
:103E700000AF786039600023FB60FB680133FB60B2
:103E8000FB68B3F1706F01D903231BE07B681B69EA
:103E9000002BF2DA0023FB603B689B0143F0200219
:103EA0007B681A61FB680133FB60FB68B3F1706FDC
:103EB00001D9032306E07B681B6903F02003202B54
:103EC000F0D0002318461437BD465DF8047B7047D8
:103ED00080B485B000AF78600023FB60FB680133DD
:103EE000FB60FB68B3F1706F01D9032318E07B68B6
:103EF0001B69002BF2DA0023FB607B6810221A6139
:103F0000FB680133FB60FB68B3F1706F01D90323D9
:103F100006E07B681B6903F01003102BF0D0002330
:103F200018461437BD465DF8047B704780B485B0F1
:103F300000AF78600B46FB707B68FB60FB6803F5A5
:103F400000631A68FB78F96801F5006113430B60A0
:103F5000002318461437BD465DF8047B704780B4D3
:103F600087B000AF78607B683B613B6903F5006315
:103F70009B6803F00603FB60FB68002B02D1002363
:103F8000FB750AE0FB68022B02D0FB68062B02D10E
:103F90000223FB7501E00F23FB75FB7D18461C37E0
:103FA000BD465DF8047B704780B485B000AF786093
:103FB00039607B68FB603B681B78BB603B685B7863
:103FC000012B3AD1FB6803F50063DA693B681B7883
:103FD00003F00F03012101FA03F39BB2F96801F525
:103FE00000611343CB61BB685A01FB68134403F5BE
:103FF00010631B6803F40043002B55D1BB685A01C2
:10400000FB68134403F510631A683B689B68C3F3AD
:104010000A013B681B799B041943BB689B050B4352
:104020001343BA685101FA680A4402F5106243F07A
:10403000805343F40043136036E0FB6803F50063EC
:10404000DA693B681B7803F00F03012101FA03F3DF
:104050001B04F96801F500611343CB61BB685A0189
:10406000FB68134403F530631B6803F40043002B23
:104070001AD1BB685A01FB68134403F530631A6810
:104080003B689B68C3F30A013B681B799B040B43A5
:104090001343BA685101FA680A4402F5306243F0EA
:1040A000805343F400431360002318461437BD4681
:1040B0005DF8047B7047000080B485B000AF786085
:1040C00039607B68FB603B681B78BB603B685B7852
:1040D000012B61D1BB685A01FB68134403F51063DF
:1040E0001B6803F00043B3F1004F1FD1BB685A01B6
:1040F000FB68134403F510631B68BA685101FA6842
:104100000A4402F5106243F000631360BB685A0171
:10411000FB68134403F510631B68BA685101FA6821
:104120000A4402F5106243F080431360FB6803F514
:104130000063DA6B3B681B7803F00F03012101FA7F
:1041400003F39BB2DB43F96801F500611340CB63D5
:10415000FB6803F50063DA693B681B7803F00F0323
:10416000012101FA03F39BB2DB43F96801F5006119
:104170001340CB61BB685A01FB68134403F510631D
:104180001A68BB685901FB680B4403F510631946B4
:10419000354B13400B6060E0BB685A01FB68134469
:1041A00003F530631B6803F00043B3F1004F1FD1E8
:1041B000BB685A01FB68134403F530631B68BA6897
:1041C0005101FA680A4402F5306243F0006313605B
:1041D000BB685A01FB68134403F530631B68BA6877
:1041E0005101FA680A4402F5306243F080431360DB
:1041F000FB6803F50063DA6B3B681B7803F00F0381
:10420000012101FA03F31B04DB43F96801F50061A6
:104210001340CB63FB6803F50063DA693B681B78E6
:1042200003F00F03012101FA03F31B04DB43F968D8
:1042300001F500611340CB61BB685A01FB68134470
:1042400003F530631A68BB685901FB680B4403F53A
:1042500030631946054B13400B6000231846143792
:10426000BD465DF8047B7047007833EC0078F3EFCF
:1042700080B58AB002AFF860B9601346FB71FB6885
:10428000FB61BB681B78BB61BB685B78012B40F0AE
:104290007F81BB681B69002B32D1BB695A01FB6966
:1042A000134403F510631B69BA695101FA690A44A2
:1042B00002F5106223F0FF5323F4C0131361BB69AE
:1042C0005A01FB69134403F510631B69BA69510174
:1042D000FA690A4402F5106243F400231361BB69D2
:1042E0005A01FB69134403F510631B69BA69510154
:1042F000FA690A4402F51062DB0CDB04136197E0F3
:10430000BB695A01FB69134403F510631B69BA6961
:104310005101FA690A4402F51062DB0CDB041361F7
:10432000BB695A01FB69134403F510631B69BA6941
:104330005101FA690A4402F5106223F0FF5323F495
:10434000C0131361BB69002B1AD1BB681A69BB6823
:104350009B689A4203D9BB689A68BB681A61BB69BB
:104360005A01FB69134403F510631B69BA695101D3
:10437000FA690A4402F5106243F40023136144E031
:10438000BB681A69BB689B6813445A1EBB689B686C
:10439000B2FBF3F3FB82BB695A01FB69134403F5DB
:1043A00010631A69FB8AD904A44B0B40B969480110
:1043B000F969014401F5106113430B61BB681B7976
:1043C000012B22D1BB695A01FB69134403F5106329
:1043D0001B69BA695101FA690A4402F5106223F0B7
:1043E000C0431361BB695A01FB69134403F51063B1
:1043F0001A69FB8A5B0703F0C043B9694801F96990
:10440000014401F5106113430B61BB695A01FB695B
:10441000134403F510631A69BB681B69C3F31203E5
:10442000B9694801F969014401F5106113430B6151
:10443000FB79012B4BD1BB68DB69002B09D0BB6931
:104440005A01FB69134403F510631A46BB68DB6924
:104450005361BB681B79012B28D1FB6903F500630D
:104460009B6803F48073002B10D1BB695A01FB6970
:10447000134403F510631B68BA695101FA690A44D1
:1044800002F5106243F0005313600FE0BB695A015C
:10449000FB69134403F510631B68BA695101FA699B
:1044A0000A4402F5106243F080531360BB695A015D
:1044B000FB69134403F510631B68BA695101FA697B
:1044C0000A4402F5106243F00443136066E1BB69DD
:1044D0005A01FB69134403F510631B68BA69510163
:1044E000FA690A4402F5106243F004431360BB68A2
:1044F0001B79012B15D0BB681B69002B00F04E8186
:10450000FB6903F500635A6BBB681B7803F00F036C
:10451000012101FA03F3F96901F5006113434B63CB
:104520003CE1FB6903F500639B6803F48073002B97
:1045300010D1BB695A01FB69134403F510631B6872
:10454000BA695101FA690A4402F5106243F0005356
:1045500013600FE0BB695A01FB69134403F5106354
:104560001B68BA695101FA690A4402F5106243F006
:1045700080531360BB68D968BB681A78BB681B6935
:1045800098B2FB7900930346F86800F0B9F905E1A9
:10459000BB695A01FB69134403F530631B69BA69AF
:1045A0005101FA690A4402F53062DB0CDB04136145
:1045B000BB695A01FB69134403F530631B69BA698F
:1045C0005101FA690A4402F5306223F0FF5323F4E3
:1045D000C0131361BB69002B32D1BB681B69002B70
:1045E00003D0BB689A68BB681A61BB689A68BB68ED
:1045F0001A62BB695A01FB69134403F530631A69F7
:10460000BB681B6AC3F31203B9694801F969014425
:1046100001F5306113430B61BB695A01FB69134417
:1046200003F530631B69BA695101FA690A4402F55E
:10463000306243F40023136162E000BF0000F81F02
:10464000BB681B69002B23D1BB695A01FB6913446A
:1046500003F530631A69BB689B68C3F31203B96939
:104660004801F969014401F5306113430B61BB69ED
:104670005A01FB69134403F530631B69BA695101A0
:10468000FA690A4402F5306243F40023136137E00B
:10469000BB681A69BB689B6813445A1EBB689B6859
:1046A000B2FBF3F3FB82BB689B68FA8A03FB02F25E
:1046B000BB681A62BB695A01FB69134403F5306396
:1046C0001A69FB8AD904384B0B40B9694801F9696A
:1046D000014401F5306113430B61BB695A01FB6969
:1046E000134403F530631A69BB681B6AC3F31203F2
:1046F000B9694801F969014401F5306113430B615F
:10470000FB79012B0DD1BB68DB68002B09D0BB689E
:10471000D968BB695A01FB69134403F530630A4643
:104720005A61BB681B79012B28D1FB6903F5006333
:104730009B6803F48073002B10D1BB695A01FB699D
:10474000134403F530631B68BA695101FA690A44DE
:1047500002F5306243F0005313600FE0BB695A0169
:10476000FB69134403F530631B68BA695101FA69A8
:104770000A4402F5306243F080531360BB695A016A
:10478000FB69134403F530631B68BA695101FA6988
:104790000A4402F5306243F00443136000231846D4
:1047A0002037BD4680BD00BF0000F81F80B487B031
:1047B00000AF786039600023FB600023FB757B68E5
:1047C0003B613B685B78012B4AD13B681B785A01FF
:1047D0003B69134403F510631B6803F00043B3F116
:1047E000004F40F086803B681B785A013B691344B8
:1047F00003F510631B683A68127851013A690A445C
:1048000002F5106243F0006313603B681B785A01A5
:104810003B69134403F510631B683A681278510131
:104820003A690A4402F5106243F080431360FB6862
:104830000133FB60FB6842F21072934202D90123FC
:10484000FB7556E03B681B785A013B69134403F53E
:1048500010631B6803F00043B3F1004FE7D048E05A
:104860003B681B785A013B69134403F530631B68AE
:1048700003F00043B3F1004F3BD13B681B785A0172
:104880003B69134403F530631B683A6812785101A1
:104890003A690A4402F5306243F0006313603B68F2
:1048A0001B785A013B69134403F530631B683A686F
:1048B000127851013A690A4402F5306243F08043AC
:1048C0001360FB680133FB60FB6842F21072934295
:1048D00002D90123FB750CE03B681B785A013B6948
:1048E000134403F530631B6803F00043B3F1004F3A
:1048F000E7D0FB7D18461C37BD465DF8047B70474A
:1049000080B489B000AFF860B96011461A460B4612
:10491000FB711346BB80FB687B61BB68FB6197F84A
:104920002830002B23D1BB8803339B083B61002335
:10493000BB6118E0FB791A037B69134403F58053CC
:104940001A46FB691B681360FB690133FB61FB6955
:104950000133FB61FB690133FB61FB690133FB61DF
:10496000BB690133BB61BA693B699A42E2D3002358
:1049700018462437BD465DF8047B704780B48BB081
:1049800000AFF860B9601346FB80FB68BB61BB6891
:104990007B62FB889B089BB27B61FB8803F003036F
:1049A000FB8300233B6214E0BB6903F580531A6864
:1049B0007B6A1A607B6A01337B627B6A01337B62AC
:1049C0007B6A01337B627B6A01337B623B6A013322
:1049D0003B623A6A7B699A42E6D3FB8B002B1ED07E
:1049E00000233B62BB6903F580531A4607F11003AD
:1049F00012681A603A693B6ADBB2DB0022FA03F301
:104A0000DAB27B6A1A703B6A01333B627B6A01331C
:104A10007B62FB8B013BFB83FB8B002BEAD17B6A28
:104A200018462C37BD465DF8047B704780B485B0CE
:104A300000AF786039607B68FB603B681B78BB60C7
:104A40003B685B78012B2CD1BB685A01FB6813448F
:104A500003F510631B68002B12DBBB68002B0FD023
:104A6000BB685A01FB68134403F510631B68BA68FE
:104A70005101FA680A4402F5106223F08043136082
:104A8000BB685A01FB68134403F510631B68BA68DE
:104A90005101FA680A4402F5106243F400131360EE
:104AA0002BE0BB685A01FB68134403F530631B68B5
:104AB000002B12DBBB68002B0FD0BB685A01FB68D0
:104AC000134403F530631B68BA685101FA680A445D
:104AD00002F5306223F080431360BB685A01FB6823
:104AE000134403F530631B68BA685101FA680A443D
:104AF00002F5306243F400131360002318461437A4
:104B0000BD465DF8047B704780B485B000AF786027
:104B100039607B68FB603B681B78BB603B685B78F7
:104B2000012B28D1BB685A01FB68134403F51063BD
:104B30001B68BA685101FA680A4402F5106223F44E
:104B4000001313603B681B79032B03D03B681B7970
:104B5000022B38D1BB685A01FB68134403F510637C
:104B60001B68BA685101FA680A4402F5106243F002
:104B70008053136027E0BB685A01FB68134403F5B8
:104B800030631B68BA685101FA680A4402F5306262
:104B900023F4001313603B681B79032B03D03B689D
:104BA0001B79022B0FD1BB685A01FB68134403F534
:104BB00030631B68BA685101FA680A4402F5306232
:104BC00043F080531360002318461437BD465DF848
:104BD000047B704780B485B000AF78600B46FB70F3
:104BE0007B68FB60FB6803F500631B68FA6802F5ED
:104BF000006223F4FE631360FB6803F500631A6828
:104C0000FB781B0103F4FE63F96801F500611343AF
:104C10000B60002318461437BD465DF8047B7047CF
:104C200080B485B000AF78607B68FB60FB6803F5FB
:104C300060631B68FA6802F5606223F00303136087
:104C4000FB6803F500635B68FA6802F5006223F015
:104C500002035360002318461437BD465DF8047BF9
:104C6000704780B485B000AF78607B68FB60FB68FC
:104C700003F560631B68FA6802F5606223F00303C2
:104C80001360FB6803F500635B68FA6802F5006275
:104C900043F002035360002318461437BD465DF805
:104CA000047B704780B485B000AF78607B685B6937
:104CB000FB607B689B69FA681340FB60FB681846E1
:104CC0001437BD465DF8047B704780B485B000AFF3
:104CD00078607B68FB60FB6803F500639B69BB60E1
:104CE000FB6803F50063DB69BA681340BB60BB680F
:104CF0001B0C18461437BD465DF8047B704780B422
:104D000085B000AF78607B68FB60FB6803F50063EB
:104D10009B69BB60FB6803F50063DB69BA681340FD
:104D2000BB60BB689BB218461437BD465DF8047B78
:104D3000704780B485B000AF78600B46FB707B682D
:104D4000FB60FB785A01FB68134403F530639B68F2
:104D5000BB60FB6803F500635B69BA681340BB6026
:104D6000BB6818461437BD465DF8047B704780B4B5
:104D700087B000AF78600B46FB707B687B617B6916
:104D800003F500631B693B617B6903F500635B6BA3
:104D9000FB60FB7803F00F03FA6822FA03F3DB01F0
:104DA000DBB23A6913433B61FB785A017B691344D8
:104DB00003F510639B683A691340BB60BB681846F3
:104DC0001C37BD465DF8047B704780B483B000AFEC
:104DD00078607B685B6903F0010318460C37BD46B9
:104DE0005DF8047B704780B485B000AF78607B6865
:104DF000FB60FB6803F510631B68FA6802F510623C
:104E000023F4FF6323F007031360FB6803F50063DB
:104E10005B68FA6802F5006243F480735360002314
:104E200018461437BD465DF8047B704780B487B0E0
:104E300000AFF8600B467A60FB72FB687B61FB6831
:104E40003C3304331B683B613B69264A93420AD9D1
:104E50007B6903F530631B6803F00043B3F1004F37
:104E600001D1002337E07B6903F530631A46002344
:104E700013617B6903F530631B697A6902F530625F
:104E800043F4002313617B6903F530631B697A697E
:104E900002F5306243F0180313617B6903F5306358
:104EA0001B697A6902F5306243F0C0431361FB7AF3
:104EB000012B0FD17B6903F530631A467B68536180
:104EC0007B6903F530631B687A6902F5306243F051
:104ED00080231360002318461C37BD465DF8047B11
:104EE000704700BF0A30544F80B485B000AF78607F
:104EF0000023FB60FB680133FB60FB68B3F1706F5C
:104F000001D9032322E07B681B69002BF2DA0A2314
:104F1000FB6002E0FB68013BFB60FB68002BF9D102
:104F20007B681B6943F001027B681A61FB680133EF
:104F3000FB60FB68B3F1706F01D9032306E07B6867
:104F40001B6903F00103012BF0D00023184614372E
:104F5000BD465DF8047B704780B586B000AF7860D1
:104F60007B68002B01D1012367E27B681B6803F09B
:104F70000103002B75D0884B9B6803F00C03042BB6
:104F80000CD0854B9B6803F00C03082B12D1824B8D
:104F90005B6803F48003B3F5800F0BD17E4B1B6875
:104FA00003F40033002B5BD07B685B68002B57D188
:104FB000012342E27B685B68B3F5803F06D1764B04
:104FC0001B68754A43F4803313601DE07B685B689F
:104FD000B3F5A02F0CD1704B1B686F4A43F48023AC
:104FE00013606D4B1B686C4A43F4803313600BE015
:104FF000694B1B68684A23F480331360664B1B6857
:10500000654A23F4802313607B685B68002B13D010
:1050100001F098FD386108E001F094FD02463B691B
:10502000D31A642B01D9032307E25B4B1B6803F4FB
:105030000033002BF0D014E001F084FD386108E06B
:1050400001F080FD02463B69D31A642B01D903238A
:10505000F3E1514B1B6803F40033002BF0D100E067
:1050600000BF7B681B6803F00203002B63D04A4B30
:105070009B6803F00C03002B0BD0474B9B6803F09D
:105080000C03082B1CD1444B5B6803F48003002BFA
:1050900016D1414B1B6803F00203002B05D07B683F
:1050A000DB68012B01D00123C7E13B4B1B6823F0D8
:1050B000F8027B681B69DB00374913430B603AE059
:1050C0007B68DB68002B20D0344B01221A6001F092
:1050D00039FD386108E001F035FD02463B69D31A1D
:1050E000022B01D90323A8E12B4B1B6803F0020319
:1050F000002BF0D0284B1B6823F0F8027B681B695B
:10510000DB00254913430B6015E0244B00221A6095
:1051100001F018FD386108E001F014FD02463B691A
:10512000D31A022B01D9032387E11B4B1B6803F021
:105130000203002BF0D17B681B6803F00803002BEF
:1051400036D07B685B69002B16D0154B01221A60A4
:1051500001F0F8FC386108E001F0F4FC02463B691C
:10516000D31A022B01D9032367E10B4B5B6F03F0CA
:105170000203002BF0D01BE0094B00221A6001F063
:10518000E1FC38610EE001F0DDFC02463B69D31A18
:10519000022B07D9032350E10038024000004742A8
:1051A000800E4742884B5B6F03F00203002BEAD16D
:1051B0007B681B6803F00403002B00F0978000233A
:1051C000FB75814B1B6C03F08053002B0FD1002328
:1051D000BB607D4B1B6C7C4A43F0805313647A4B5D
:1051E0001B6C03F08053BB60BB680123FB75774BDE
:1051F0001B6803F48073002B18D1744B1B68734A2F
:1052000043F48073136001F09DFC386108E001F005
:1052100099FC02463B69D31A022B01D903230CE106
:105220006A4B1B6803F48073002BF0D07B689B688B
:10523000012B06D1644B1B6F634A43F001031367D4
:105240001CE07B689B68052B0CD15F4B1B6F5E4A93
:1052500043F0040313675C4B1B6F5B4A43F001038D
:1052600013670BE0584B1B6F574A23F0010313677A
:10527000554B1B6F544A23F0040313677B689B68EC
:10528000002B15D001F05EFC38610AE001F05AFCF9
:1052900002463B69D31A41F28832934201D9032373
:1052A000CBE0494B1B6F03F00203002BEED014E060
:1052B00001F048FC38610AE001F044FC02463B6919
:1052C000D31A41F28832934201D90323B5E03E4B11
:1052D0001B6F03F00203002BEED1FB7D012B05D1E8
:1052E000394B1B6C384A23F0805313647B689B69ED
:1052F000002B00F0A180344B9B6803F00C03082BBB
:105300005CD07B689B69022B41D1314B00221A6033
:1053100001F018FC386108E001F014FC02463B691A
:10532000D31A022B01D9032387E0274B1B6803F014
:105330000073002BF0D17B68DA697B681B6A1A4323
:105340007B685B6A9B011A437B689B6A5B08013B35
:105350001B041A437B68DB6A1B061B4913434B6023
:105360001B4B01221A6001F0EDFB386108E001F0EF
:10537000E9FB02463B69D31A022B01D903235CE007
:10538000114B1B6803F00073002BF0D054E0104B5E
:1053900000221A6001F0D6FB386108E001F0D2FB70
:1053A00002463B69D31A022B01D9032345E0064B81
:1053B0001B6803F00073002BF0D13DE07B689B6914
:1053C000012B07D1012338E0003802400070004073
:1053D000600047421B4B5B68FB607B689B69012B4D
:1053E00028D0FB6803F480027B68DB699A4221D1F4
:1053F000FB6803F03F027B681B6A9A421AD1FA6885
:1054000047F6C07313407A68526A9201934211D1F1
:10541000FB6803F440327B689B6A5B08013B1B041A
:105420009A4207D1FB6803F070627B68DB6A1B0657
:105430009A4201D0012300E0002318461837BD46E8
:1054400080BD00BF0038024080B584B000AF7860F6
:1054500039607B68002B01D10123CCE0684B1B68CD
:1054600003F007033A689A420CD9654B3A68D2B206
:105470001A70634B1B6803F007033A689A4201D025
:105480000123B8E07B681B6803F00203002B20D0E7
:105490007B681B6803F00403002B05D0594B9B6805
:1054A000584A43F4E05393607B681B6803F0080399
:1054B000002B05D0534B9B68524A43F460439360E2
:1054C000504B9B6823F0F0027B689B684D49134367
:1054D0008B607B681B6803F00103002B44D07B6862
:1054E0005B68012B07D1474B1B6803F40033002B8B
:1054F00019D101237FE07B685B68022B03D07B68B6
:105500005B68032B07D13F4B1B6803F00073002B34
:1055100009D101236FE03B4B1B6803F00203002B12
:1055200001D1012367E0374B9B6823F003027B68BE
:105530005B68344913438B6001F004FBF8600AE0B8
:1055400001F000FB0246FB68D31A41F28832934215
:1055500001D903234FE02B4B9B6803F00C027B68BF
:105560005B689B009A42EBD1254B1B6803F0070355
:105570003A689A420CD2224B3A68D2B21A70204B47
:105580001B6803F007033A689A4201D0012332E016
:105590007B681B6803F00403002B08D0194B9B6841
:1055A00023F4E0527B68DB68164913438B607B6809
:1055B0001B6803F00803002B09D0124B9B6823F4EF
:1055C00060427B681B69DB000E4913438B6000F06F
:1055D00021F802460B4B9B681B0903F00F030A4995
:1055E000CB5C22FA03F3094A1360094B1B68184687
:1055F0000BF00AFD002318461037BD4680BD00BFE2
:10560000003C0240003802403CAA01085000002043
:10561000740000202DE9B04F90B000AF00237B63F1
:105620000023FB6300233B630023BB63594B9B6850
:1056300003F00C03082B0DD0082B00F2A180002BE7
:1056400002D0042B03D09BE0534BBB639BE0534B36
:10565000BB6398E04F4B5B6803F03F037B634D4BAC
:105660005B6803F48003002B28D04A4B5B689B09DE
:1056700000223B627A623B6AC3F308000021474B79
:1056800003FB01F2002300FB03F31344434AA0FB96
:105690000212FA620A46BA62FA6A1344FB627B6B30
:1056A0000022BB61FA61D7E90623D7E90A01FBF7BB
:1056B00035FA02460B461346FB6353E0354B5B68F5
:1056C0009B0900223B617A613B69C3F3080A4FF0F2
:1056D000000B52465B464FF000004FF000015901AD
:1056E00041EAD261500102460B46B2EB0A0863EB75
:1056F0000B094FF000024FF000034FEA891343EA11
:1057000098634FEA8812B2EB080463EB09054FF087
:1057100000024FF00003EB0043EA5473E20014462A
:105720001D4614EB0A033B6045EB0B037B604FF017
:1057300000024FF00003D7E9004529468B022146BD
:1057400043EA915321468A02104619467B6B002298
:10575000BB60FA60D7E90223FBF7E0F902460B468B
:105760001346FB630B4B5B681B0C03F00303013315
:105770005B003B63FA6B3B6BB2FBF3F3BB6302E092
:10578000054BBB6300BFBB6B18464037BD46BDE849
:10579000B08F00BF003802400024F400001BB700A7
:1057A00080B400AF034B1B681846BD465DF8047B10
:1057B000704700BF5000002080B500AFFFF7F0FF3A
:1057C0000246054B9B689B0A03F007030349CB5C29
:1057D00022FA03F3184680BD003802404CAA0108A3
:1057E00080B500AFFFF7DCFF0246054B9B685B0B03
:1057F00003F007030349CB5C22FA03F3184680BD8C
:10580000003802404CAA010880B483B000AF786031
:1058100039607B680F221A60124B9B6803F0030209
:105820007B685A600F4B9B6803F0F0027B689A60BC
:105830000C4B9B6803F4E0527B68DA60094B9B6871
:10584000DB0803F4E0527B681A61074B1B6803F026
:1058500007023B681A6000BF0C37BD465DF8047B49
:10586000704700BF00380240003C024080B586B05F
:1058700000AF786000237B6100233B617B681B687D
:1058800003F00103002B05D17B681B6803F00403C0
:10589000002B35D0624B00221A6001F053F9786179
:1058A00008E001F04FF902467B69D31A022B01D9B7
:1058B0000323B0E05B4B1B6803F00063002BF0D1C7
:1058C0007B685B689A017B689B681B07554913439B
:1058D000C1F88430524B01221A6001F033F978612B
:1058E00008E001F02FF902467B69D31A022B01D997
:1058F000032390E04B4B1B6803F00063002BF0D0B8
:105900007B681B6803F00203002B00F083800023F8
:10591000FB60444B1B6C434A43F080531364414B80
:105920001B6C03F08053FB60FB683F4B1B683E4AD7
:1059300043F48073136001F005F9786108E001F029
:1059400001F902467B69D31A022B01D9032362E0D5
:10595000354B1B6803F48073002BF0D0314B1B6F69
:1059600003F440733B613B69002B2FD07B68DB68FD
:1059700003F440733A699A4228D02A4B1B6F23F4F0
:1059800040733B61294B01221A60284B00221A60A8
:10599000244A3B691367234B1B6F03F00103012B60
:1059A00014D101F0CFF878610AE001F0CBF802469B
:1059B0007B69D31A41F28832934201D903232AE04A
:1059C000184B1B6F03F00203002BEED07B68DB68E3
:1059D00003F44073B3F5407F0DD1124B9B6823F461
:1059E000F8127B68DB6823F0704323F440730D49A1
:1059F00013438B6005E00B4B9B680A4A23F4F813B2
:105A00009360084B1A6F7B68DB68C3F30B0305498F
:105A100013430B67002318461837BD4680BD00BFEF
:105A2000680047420038024000700040400E474284
:105A300080B582B000AF00237B60494BDB6803F088
:105A4000F203002B20D0474B1B78DBB2012B07D190
:105A5000444BDB687B60434B4FF0FF32DA600BE076
:105A6000404B1B78DBB2022B03D13E4B1B697B60A2
:105A700002E03C4B5B697B6000F08AF8786800F0DC
:105A80007DF8384B00221A70354BDB6803F00103B8
:105A9000002B4AD0324B0122DA60324B1B78DBB24A
:105AA000012B2DD12F4B5B68013B2E4A53602D4BB0
:105AB0005B68002B15D02B4BDB687B60786800F0AF
:105AC00053F8284BDB680133264AD360254BDB684B
:105AD0007B60244B1B7ADBB21946786800F0AEF885
